:020000041000EA
:1000000000B5324B212058609868022188439860DF
:10001000D860186158612E4B002199600221596106
:100020000121F02299502B49196001219960352056
:1000300000F044F80222904214D00621196600F024
:1000400034F8196E01211966002018661A6600F04E
:100050002CF8196E196E196E052000F02FF8012189
:100060000842F9D1002199601B49196000215960AB
:100070001A491B48016001219960EB211966A021F2
:10008000196600F012F800219960164914480160C1
:100090000121996001BC002800D000471248134993
:1000A000086003C880F30888084703B5996A0420EC
:1000B0000142FBD001200142F8D103BD02B5186610
:1000C0001866FFF7F2FF186E186E02BD00000240BE
:1000D000000000180000070000035F00212200005C
:1000E000F4000018222000A00001001008ED00E03C
:1000F00000000000000000000000000074B24E7A12
:1001000000200420F7010010CB010010CD010010E9
:10011000C9010010C9010010C9010010C901001077
:10012000C9010010C9010010C9010010CF01001061
:10013000C9010010C9010010D1010010D301001045
:10014000C1010010C1010010C1010010C101001067
:10015000C1010010C1010010C1010010C101001057
:10016000C1010010C1010010C1010010C101001047
:10017000C1010010C1010010C1010010C101001037
:10018000C1010010C1010010C1010010C101001027
:10019000C1010010C1010010C1010010C101001017
:1001A000C1010010C1010010C1010010C101001007
:1001B000C1010010C1010010C1010010C1010010F7
:1001C000EFF30580103800BE00BE00BE00BE00BECA
:1001D00000BE00BEF2EB88712849001044490010AF
:1001E0003802001090A31AE71E481F49086006C88D
:1001F00081F3088810471D480068002801D019487D
:10020000F3E70DA40ECC002902D000F012F8F9E7B4
:100210001749184A002000E001C19142FCD116495B
:100220008847164988471649884700BEFDE701C937
:1002300001C29A42FBD3704744490010C00000201D
:10024000401B0020C46300100000042000000420B4
:10025000C4630010001004200010042000000000FF
:10026000704700000000000008ED00E0000000D032
:10027000401B0020D4220020353200106D110010E8
:100280002D320010F8B5C04606480749091A8B10F0
:10029000C90FC91810B5491003D0044B002B00D06A
:1002A000984710BD401B0020401B002000000000AC
:1002B000054B10B5002B03D00449054800E000BFF2
:1002C000FFF7E2FF10BDC0460000000098220020AA
:1002D000583C0010A423082170B5FF24124A13488B
:1002E000D150134A0168136815685B1AA343491B70
:1002F000C91801600F481B0A01681B044B401B0C06
:100300000D490E4E1B040B603568536852685B1B29
:10031000A343AD1AED18356002681B021B0C534055
:100320001B041B0C0B6070BD000005405821002011
:10033000981A002048000540481005405C21002024
:10034000F0B5502387B017266A460405240F1C43D6
:100350006E44AF3393750D00307001F05BFC0023E9
:100360001A4A1B4F12184B41002B02DA0122194B7B
:10037000524202920393002332000093210038007E
:10038000013303F0DBFA00281ADD01F043FC0023FF
:100390000E4A80185941002902DA01200D494042D5
:1003A00000231622029003910093210038000133AC
:1003B0006A4403F0E7FA002802DD6B46987D02E00C
:1003C000012300202B7007B0F0BDC04610270000AD
:1003D000301B0020FFFFFF7F10B5024B186803F0B1
:1003E0000FFC10BD3021002070B5D0250122002166
:1003F000072001F019FE01220021062001F014FE61
:100400000122002105202D0601F00EFE0120002111
:1004100001F0DAFA6A686C686B6864069B06E40FA0
:10042000DB0F1B01A4001C431306DB0F002201217C
:1004300007201C4301F0F8FD00220121062001F0F5
:10044000F3FD00220121052001F0EEFD0120002135
:1004500001F0BAFA69686A6809066B68C90F520642
:10046000490064B2D20F9B060C43D200DB0F5B0144
:1004700000210720144301221C4301F0D5FD012275
:100480000021062001F0D0FD64B2012200210520E8
:1004900001F0CAFD2A2C05D0302C03D0FF200C2CF3
:1004A00000D070BDE0B2FCE7F0B54E46DE465746E0
:1004B000454603008C46E0B5634424331B7885B081
:1004C000994601900291002B00D138E280468B00C2
:1004D000039363441B019844444600202C34205667
:1004E00002F0C0FDE94902F086FD4446071CA06AFF
:1004F00002F0B8FD00218246381C02F065FD0021A3
:10050000041C504602F060FD391C051C381C02F02A
:1005100072FD002102F058FD391C061C504602F005
:100520006AFD002102F050FD4A46071C012A00D155
:10053000A6E1424600203432105602F093FDD34922
:1005400002F059FD42468246106B02F08BFD514687
:100550008346201C02F038FD5946041C281C02F07A
:1005600033FD5146051C504602F045FD011C301C70
:1005700002F02AFD5146061C584602F03CFD011CC3
:10058000381C02F021FD4A46071C022A00D177E1FF
:10059000424600203C32105602F064FDBB4902F096
:1005A0002AFD42468246906B02F05CFD514683462E
:1005B000201C02F009FD5946041C281C02F004FD11
:1005C0005146051C504602F016FD011C301C02F07D
:1005D000FBFC5146061C584602F00DFD011C381C60
:1005E00002F0F2FC4A46071C032A00D148E14246C9
:1005F00000204432105602F035FDA44902F0FBFC05
:1006000042468246106C02F02DFD51468346201C66
:1006100002F0DAFC5946041C281C02F0D5FC5146B5
:10062000051C504602F0E7FC011C301C02F0CCFC1B
:100630005946061C504602F0DEFC011C381C02F034
:10064000C3FC4A46071C042A00D119E14246002097
:100650004C32105602F006FD8C4902F0CCFC4246AA
:100660008246906C02F0FEFC51468346201C02F04C
:10067000ABFC5946041C281C02F0A6FC5146051C84
:10068000504602F0B8FC011C301C02F09DFC59469B
:10069000061C504602F0AFFC011C381C02F094FC12
:1006A0004A46071C052A00D1EAE054234246D056A8
:1006B00002F0D8FC754902F09EFC42468246106D5D
:1006C00002F0D0FC51468346201C02F07DFC5946C6
:1006D000041C281C02F078FC5146051C504602F010
:1006E0008AFC011C301C02F06FFC5946061C504667
:1006F00002F081FC011C381C02F066FC4A46071C13
:10070000062A00D1BCE0424600205C32105602F0BE
:10071000A9FC5E4902F06FFC42468246906D02F0F1
:10072000A1FC51468346201C02F04EFC5946041C95
:10073000281C02F049FC5146051C504602F05BFCA7
:10074000011C301C02F040FC5946061C504602F0C9
:1007500052FC011C381C02F037FC4A46071C072AD1
:1007600000D18DE0424600206432105602F07AFC3F
:10077000464902F040FC42468246106E02F072FC8E
:1007800051468346201C02F01FFC5946041C281CBD
:1007900002F01AFC5146051C504602F02CFC011CCC
:1007A000301C02F011FC5946061C504602F023FC96
:1007B000011C381C02F008FC4A46071C082A5FD0BE
:1007C000424600206C32105602F04CFC2F4902F0D9
:1007D00012FC42468246906E02F044FC514680462E
:1007E000201C02F0F1FB4146041C281C02F0ECFB2B
:1007F0005146051C504602F0FEFB011C301C02F065
:10080000E3FB4146061C504602F0F5FB011C381C78
:1008100002F0DAFB4A46071C092A31D00298019AF5
:1008200084469046039B742063441B0198444346CE
:10083000185602F017FC154902F0DDFB43468246CC
:10084000186F02F00FFC51468046201C02F0BCFBE2
:100850004146041C281C02F0B7FB5146051C5046BB
:1008600002F0C9FB011C301C02F0AEFB4146061C25
:10087000504602F0C0FB011C381C02F0A5FB071C0F
:10088000211C201C02F0B7FB804601E0CDCCCC3D02
:10089000484602F0E7FB311C814602F0ACFB4146C2
:1008A00002F08FFB0021061C02F0D4FB002842D18D
:1008B000391C484602F09FFB291C071C201C02F033
:1008C0009AFB011C381C02F07CFB311C02F07FFB00
:1008D0001E49071C02F08FFBFC21890502F074FB06
:1008E00002F0E2FB8046029B211C1E01019B381C8A
:1008F0009C4666443300C8331F6002F07CFB011C39
:10090000281C02F05EFB494602F061FB3300CC3349
:1009100042461860FC21D0238905F25002F054FBB6
:1009200002F0C2FBD423F05005B0F0BCBB46B24687
:10093000A946A046F0BD002300279846D3E7002330
:1009400098461F1C1E1C1D1C1C1CA1E7ABAAAA3F1D
:100950000323F0B557469A46DE464E464546514675
:10096000E0B521339FB0C154C83399464946C03BD6
:10097000C1544C4B0024836298463423142683468A
:10098000494F4A4DC454083307630021C654856358
:100990000490FFF789FD5A4625235146D154494614
:1009A0005733D154434693678423D454043BD750E0
:1009B0000C33D654043B1000D550EB39FFF774FDCF
:1009C00002AA02AB94465C7515236344190000200B
:1009D000FFF7B6FC02AA94461523634404001900ED
:1009E0000120FFF7ADFC324B240204439C4200D0AF
:1009F0008DE102A98C461622624493461722624476
:100A000090462C4A08AB9246FF221D0000249146D6
:100A10000027294E05931BE001F0FCF8801979416D
:100A2000002902DA01202549404200230290039167
:100A300000935A4650215046013302F0A3FF00288C
:100A400020DD5B461B7801342B700135582C22D0F9
:100A50005B464A461A7043461C7001F0DBF8801969
:100A60007941002902DA0120144940420023029012
:100A700003910093424650215046013302F05EFF3D
:100A80000028C9DC012302AA5375002301342B700E
:100A90000135582CDCD108AC059B0949094856346E
:100AA0003AE0C046344E050050FC030040A9020065
:100AB000D1070000301B002010270000FFFFFF7F40
:100AC000FFFF00002110000049008AB209B200298E
:100AD0002EDB520091B212B2002A2FDB49008AB2FB
:100AE00009B2002930DB520091B212B2002A31DB88
:100AF00049008AB209B2002932DB520095B212B223
:100B0000002A33DB6D00A9B22DB2002D34DB490081
:100B1000013389B29C4235D01A78120251400AB290
:100B2000002AD1DA5200424011B292B20029D0DA42
:100B3000490041400AB289B2002ACFDA520042404D
:100B400011B292B20029CEDA490041400AB289B20C
:100B5000002ACDDA5200424011B292B20029CCDA1A
:100B60004D0045402AB2ADB2002ACBDA51004140D7
:100B70000DB289B2002DCADA6D0045400133A9B229
:100B80009C42C9D11820562302AA1218D35A5BBA24
:100B90009BB28B4200D0BAE024229446049B0027EB
:100BA0001D00634498462423994609AC283511AEAC
:100BB00042462378D355002B00D19AE0A278E17801
:100BC000120609040A4361790A43217909020A439A
:100BD00061782A602971012B00D18AE0E279217ABB
:100BE000120609040A43A17A0A43617A09020A43F8
:100BF000A179AA602973022B7BD0227B617B12062C
:100C000009040A43E17B0A43A17B09020A43E17A12
:100C10002A612975032B6CD0627CA17C1206090421
:100C20000A43217D0A43E17C09020A43217CAA612F
:100C30002977042B5DD04846A27DE17D1206090488
:100C40000A43617E0A43217E09020A43617D2954D9
:100C50002A62052B4DD0E27E217F120609040A4349
:100C6000A17FA07E0A43617F09020A432C216854B8
:100C7000AA62062B3DD032787178120609040A4325
:100C8000F178E07F0A43B17809020A4334216854BD
:100C90002A63072B2DD07279B179120609040A4311
:100CA000317A30790A43F17909020A433C216854C8
:100CB000AA63082B1DD0B27AF17A120609040A43FE
:100CC000717B707A0A43317B09020A4344216854DC
:100CD0002A64092B0DD0F37B327C1B0612041343CC
:100CE000B27CB17B1343727C120213434C22A95491
:100CF000AB6439000498FFF7D7FB7B1C293401272C
:100D000050352936022B00D052E7002000E00120A8
:100D10001FB0F0BCBB46B246A946A046F0BDC046D7
:100D2000F0B5D6464F4646460025C0B50700F04B05
:100D30001022036000210561C56085604560056281
:100D4000C56185614561F83002F042FA84233800BC
:100D50005B00FD520D30023308220021FD52FF30AE
:100D600002F036FA80238A221B015200BB52023263
:100D7000BB5238008C2300245B001D30FC54002142
:100D8000FE3AFF3002F024FA380035300622002106
:100D9000FF3002F01DFAB5235B00FC543E2308220D
:100DA000FF33FC54D34B01261A60E022D24BD20110
:100DB0001B681340D14A13609D235B00FC54063B23
:100DC000FC543623FF33FC540133FC543823FF33E7
:100DD000FC540133FC543A23FF33FC54C84CA31D8C
:100DE0009946C84B9846237804219A46180001F08A
:100DF00001F953460421581C01F0FCF853465246B1
:100E00005B081F2A00D9ADE107221A4093009B1806
:100E1000BD49BE4A9B009A18591815600D60BC491F
:100E200059180D60BB498C46414663441960102334
:100E3000536016602378013359081F2B00DD8DE1C4
:100E400007220A4093009B18AF49B04A9B009A18AA
:100E5000591815600D60AE4959180D60AD498C46A2
:100E600041466344196010235360166023785A0882
:100E70001F2B00D96EE1072111408A005218A449A6
:100E800092005118096840468C4631001940494289
:100E9000414060460140A0480133844662441160ED
:100EA0005A081F2B00DD1FE10721114040468A0030
:100EB0005218974992005118334009685B424340E9
:100EC0000B40954902348C4662441360A1458AD197
:100ED00002F07CFD1F211B2001F08CF80022002174
:100EE0001B2001F0A1F800211B2001F0B1F81F2107
:100EF0001A2001F07FF8002200211A2001F094F856
:100F000000211A2001F0A4F81F211C2001F072F822
:100F1000002200211C2001F087F800211C2001F094
:100F200097F81F211D2001F065F8002200211D20E7
:100F300001F07AF800211D2001F08AF8182001F054
:100F40009BF8192001F098F8D024802324065B0434
:100F5000636280239B046362082001F08DF8802384
:100F60005B0063620920636101F086F880239B00C7
:100F700063620220636101F07FF804230022A36210
:100F80000121022001F050F8032001F075F8082338
:100F9000624DA36200220121032001F045F82800E0
:100FA0005F4902F02FFD0222904641466B681220F5
:100FB00013405C4A11600F22296810255140C0324D
:100FC0000A4059490A60594A0121136001F012F898
:100FD0000121132001F00EF80121152001F00AF87B
:100FE0000421172001F006F80421162001F002F870
:100FF0000022464B4E49DA635A649A64D9641D64F0
:10100000DE63DA635A649A64D9641D64DE63FA238A
:1010100048499B040A68072053401B0C464A1B049E
:101020001360FA2309689B004B401B041B0C1360E0
:1010300001F022F8062001F01FF8052001F01CF84D
:101040008023A362403BA362203BA362142001F0F3
:1010500013F800220021142000F0E6FF042001F024
:101060000BF865623549A561354802F03FFC032164
:10107000102000F0BFFF0321112000F0BBFF002073
:1010800000F0FAFF6662012000F0F6FF43463800E8
:101090006362FFF7A9F9F023F8543800FFF758FC12
:1010A0009F23464001205B003040F854563B984651
:1010B000B844404600F008F914264346214C224D1E
:1010C00018685968214A224B01F05EFF013E001961
:1010D0006941002EF6D14346186059603800E0BCE3
:1010E000BA46B146A846F0BD032111400831DDE6FD
:1010F000343D001000F0044000C0044000D0044023
:10110000C8480010FFFF000008000540000005402F
:101110000C000540100005400C10054000C00340C5
:10112000286BEE0004F0034000D0034004E00340CD
:10113000CF0700004800054048100540A086010088
:10114000301B00204F8167F77E7B05142D7F954C67
:101150002DF451580321114008318EE603220A4034
:1011600008326FE603221A4008324FE600B585B018
:101170000C4803AB02AA01A901F06EF9002803D1C3
:101180000948084900F0BEF8039A0299019801F055
:1011900087F8064B0648186002F02AFD002005B0CB
:1011A00000BDC04680320200583C001030210020B3
:1011B000401B0020F8B5394C80262000FFF7B0FD19
:1011C0002000374B6D3018220021FF30236001F0E2
:1011D000FFFFCE230025012776025B00E650043393
:1011E000E6500433E5500433E5500433E5507F42C4
:1011F0000433E750DA22802352001B01A35004324B
:10120000A3500432A5500432A5500432A350E42365
:1012100080225B0012062000E25001220433E550D8
:101220000433E550DD300433E254002104335F32EF
:10123000FF30E55001F0CCFF8F239B00E5500433D5
:10124000E5500433E5500433E5540433E650E11827
:10125000002200234A608B6096239B00E5500433F4
:10126000E6500433E5500433E5500433E7500433CB
:10127000E55485320B4BFF32A3500432A350C623F2
:10128000094A5B00E250094A0433E250084A043339
:10129000E250084A0433E250F8BDC046401B00202B
:1012A000403D0010C3346501553417028669CA02F7
:1012B000AB682E040DD3940510B5024800F004F875
:1012C00010BDC046C022002010B588B004000D2219
:1012D0000021684601F07CFF0D22002104A801F0E6
:1012E00077FF4B236A466846137004A90D2202F06B
:1012F00057FC152108222000694401F06FFF08B057
:1013000010BDC0460FB400B5084883B002F0D0F855
:10131000049B002B07D005A91800019101F06CFF78
:10132000034802F0C5F8012001F07EFF8C3C00105C
:101330009C3C001070B5EFF3108C72B60D4D2B680D
:10134000002BFCD0BFF35F8F0724CB08C618C05C0E
:1013500001230C40A3401C000440034207D1184362
:101360003070BFF35F8F2C608CF3108870BD10005D
:10137000FFF7C8FF2C0100D0F8B54746CE46884697
:1013800080B5EFF3108C72B61C4D2C68002CFCD08D
:10139000BFF35F8F9A4222D807210126894602E0D7
:1013A0000132934218D34D4637001540AF40D40860
:1013B0000119045D2742F3D110003C430C70BFF3C8
:1013C0005F8F00220D4B1A608CF3108800280EDB13
:1013D000C0BCB946B046F8BD01204042EFE7BFF3BC
:1013E0005F8F00232B608CF310880120404243461E
:1013F000002BEDD00898FFF785FFC0462C0100D0E8
:10140000044A1078431CDBB2172B00D91023137049
:101410007047C046A01A00200021044B044ABFF3C5
:101420005F8F02C39342FAD17047C046000100D0DB
:10143000800100D0002310B50100988A1B8B9847CB
:1014400010BDC046162310B50100188802331B8852
:10145000984710BDF8B54746CE4680B50F1E18D048
:1014600014239946043304000025012698464B4670
:101470001888434621681B88984701C4431E984139
:1014800001350640AF42F2D13000C0BCB946B0468B
:10149000F8BD0126F8E7C0460A4B1968EFF3108043
:1014A00072B60A68002AFCD0BFF35F8F1B68BFF3D7
:1014B0005F8F00221A6080F3108840BF0020002157
:1014C0007047C046CC220020F0B5DE4657464E4657
:1014D0004546E0B587B0EFF30583032201251A40A6
:1014E000954091008846A946B34B03925C58B34B94
:1014F0001D60B34B04934B46B24843630823E55E3B
:10150000002D37DAA3881BB2002B00DBADE0A379F6
:10151000002B00D0EEE00823E05E002820DB430033
:1015200062691B18DB00D3189E68DD68731C00D14C
:1015300011E1A44801004144826A0B69B71A9B1A61
:101540009F4215D30123026A039883401A420FD0A9
:101550009C4800F057FB8D4202DCCCD18642CAD9B0
:1015600040BF07B0F0BCBB46B246A946A046F0BD9E
:101570000E61EDE762696B0092465B19DB009A44ED
:1015800053469E68DF6800F03DFB8F42BADC00D115
:1015900003E1002F00DAE8E05246534652691B6926
:1015A0009346049A934200D1D9E052460821605EE6
:1015B00052880004594610439847009001910099C1
:1015C000019A0B001000134300D1CEE013000A0073
:1015D000B61A9F41002806DB7A4800F013FB009EF4
:1015E000019F36184F4153469E60DF6000229A5E8D
:1015F000002A00DA86E7530099186069C90041188B
:1016000002938B68C9689B46B94200DD7AE702D134
:10161000B34200D976E708239C46A4440595654665
:101620002281A446029B2C0006E053009918C900B1
:1016300041188D68C968AB469B18DB00C318B942D6
:1016400006DC00D1B3E01C000023E25E002AECDAE5
:10165000230064469C4653461A806346059D1D80C0
:10166000A3881BB2002B00DA51E72269EFF3108147
:1016700072B61368002BFCD0BFF35F8F0123A788DD
:101680005B42A3803FB22369BFF35F8F00221A60E1
:1016900081F31088002F00DA39E723000833220095
:1016A0009A4666697B00DB19DB00F318996850469F
:1016B0008C460824115FDD68002910DB029306E0E8
:1016C000AB4244D00023E15E2000002906DB4C0041
:1016D0006418E4003419E368AB42F1DD029B078033
:1016E00000201F5E1980002FDCDA1400A379002B84
:1016F00000D110E70023A37126000823E15E08361D
:101700004B1C00D12CE70800A246656902E03E00B0
:101710004B1C1AD04B005B18DB00EF180A008C46FC
:10172000E95E7B881BB2002BF1DA01235B42DC17F8
:10173000BB60FC60824205D0534631801B893B80F0
:1017400053461A8160464B1CE4D15446E5E6A36833
:101750006345B7D9C2E76B1C00D0EAE6F8E65B4602
:1017600058461B69984700281BD153461B8822699D
:101770002381EFF3108372B611680029FCD0BFF308
:101780005F8F514662880A8022696580BFF35F8F50
:101790000021116083F31088B4E6864200D8F8E691
:1017A000B0E65B461A685B680092019307E7B345B1
:1017B00000D848E74CE7C046B02200203C70054006
:1017C000C91400100040054070B52E4C2569002D4D
:1017D00004D00A212C4800F0DDFB70BD2B4E032104
:1017E000300000F005FAE660FFF70AFE284B0322FE
:1017F0009C46D02322701B061B6801216370254B79
:101800006044A3600F23800020610220638063692D
:101810004942A18019800231198647311D835852EF
:1018200018315A5275325C39995218320131995235
:101830001832013199521832013199520835183253
:101840009D52023118329952183201319952183290
:10185000013199521832013199521832013199529D
:101860001832013199520C4B0C49DC600130356261
:1018700000F00EFA0121032000F0F8F9084B1D607A
:10188000A7E7C046A41A0020CC2200200040054053
:1018900040000034FFFF1000B0220020C9140010E7
:1018A0003860054070B501000469EFF3108C72B622
:1018B00020680028FCD0BFF35F8F02200D5E4C69CA
:1018C00068004019C00024180869002D36DB2688FE
:1018D0004E80BFF35F8F002606608CF31088E360B4
:1018E00063880498013320615B0405985B0CA26057
:1018F00060611A1C002B1FD093B228046280184329
:101900000A69EFF3108C72B61368002BFCD0BFF39A
:101910005F8F8B8823808D800B69BFF35F8F0022E0
:101920001A608CF310880B7801329A40CB68084912
:101930008C4663441A6070BD0122DDE7BFF35F8F00
:10194000002303608CF3108801204042F3E7C04677
:101950003C20000010B543890A1493421ADD53005D
:101960009B184269DB00D3180469EFF3108C72B640
:101970002268002AFCD0BFF35F8F5A88090494B212
:10198000090C8A4208D00369BFF35F8F00221A60F6
:101990008CF31088002010BD8022120214435C805A
:1019A000012302698371BFF35F8F002111608CF303
:1019B0001088044902788C469340C2680120624432
:1019C0001360E8E73C200000F0B5C64600B582B0E1
:1019D00004000D0000F01EF924184D41002D02DA1C
:1019E00001242F4D644206267642F71736196F41BF
:1019F000AF4214D811D000F00DF932003B00121A9A
:101A00008B41002B15DC002B46D02000290000F074
:101A10000BF902B080BCB846F0BDA642EBD9002657
:101A2000002700F0F7F832003B00121A8B41002B20
:101A3000E9DD00F0EFF832003B00121A8B41002B79
:101A40000ADB00230193174B3200009316483B003A
:101A5000FFF728FF0130D8D000233900B0469C465C
:101A6000124A1348536A994204D8966A4645CCD222
:101A70009942CAD10668EFF3108772B63368002B1B
:101A8000FCD0BFF35F8F0368BFF35F8F66461E60B5
:101A900087F3108820BFE5E7002AB6D0C9E7C04623
:101AA000FFFFFF7F99140010A41A0020004005409A
:101AB000CC220020F0B557464E46DE464546E0B5FE
:101AC00006000F0085B0EFF3058399468B46002B87
:101AD00012D0384900204B6ABB4206D38A6ADB1B0E
:101AE000591E8B41B2424041184305B0F0BCBB4681
:101AF000B246A946A046F0BD2F4B9A46DB689846F1
:101B000053461B784046039300F07CF84246039B03
:101B1000040004339B009B580D001B1A3900300051
:101B2000001BA941894510DC0DD020BF214A0020AF
:101B3000536A5B45D9D3926ADB1B591E8B41B24273
:101B400040411843D1E78342EFD900F063F83200F7
:101B50003B00121A8B41002B1ADB00230193174B19
:101B60003200009350463B00FFF79CFE011E0FDD44
:101B7000104B5A6A5A451BD39B6AB34216D3504640
:101B8000FFF7E8FE0B4A0020536A5B45ADD3D2E76E
:101B9000084A0020536A5B45A7D30020926ADB1BEA
:101BA000B24240415A1E934118439EE75A45E6D13E
:101BB00020BFE4E700400540A41A0020991400105B
:101BC000074943684A6A10B504680020934206D862
:101BD000896A9B1A5A1E9341A1424041184310BD85
:101BE000004005400260436000487047C11B001080
:101BF00010B5024A0248FFF79DFB10BDA03C001043
:101C0000602200200300416A0A00986A596A8A42E9
:101C1000FAD17047034B596A0A00986A596A91428F
:101C2000FAD1704700400540064A536A9942FCD8F1
:101C300007D1044B02E05A6A914202D19A6A90425B
:101C4000F9D8704700400540054B064A1360064A24
:101C5000136053609360D360136153619361704765
:101C60008080808000E400E004E400E01F2318404E
:101C70001E3B8340002905D0C021044A490053502F
:101C800013607047802201498B50FAE700E100E0C1
:101C900070B50D00EFF3108672B60F4A1368002B73
:101CA000FCD0BFF35F8F0D4B10309B6884001B5935
:101CB0000B4A934203D09D4201D000F073FD074BC5
:101CC0009B681D51BFF35F8FBFF35F8F0022024BF4
:101CD0001A6086F3108870BD240100D000ED00E08A
:101CE000C1010010F0B5DE4657464E464546E0B508
:101CF0000C0083B0EFF3108872B6634A1368002BB0
:101D0000FCD0BFF35F8F614B61499A6803001033C9
:101D10009F00D55901938D4243D0A54254D05D4ECA
:101D2000AA1B2F2A3DD85C4B9B461B689946012372
:101D30001A009C4682404B4613401F229946634638
:101D4000024093409A4680225B4650469850BFF32B
:101D50005F8FEFF305839B46002B37D0019B5B45DC
:101D600001D000F01FFD01232A009A4390688442AD
:101D700008D176E04B005B189B00F318986884420A
:101D800036D01A00062151560029F3DA844254D085
:101D90004B46002B27D0C02251463F4B5200995052
:101DA00019603A4B9B68DD51BFF35F8FBFF35F8FC4
:101DB0000022354B1A6088F3108803B0F0BCBB4694
:101DC000B246A946A046F0BD0D00EAE72A006346E8
:101DD0009A4390688442D5D10620105613000028FB
:101DE0000ADA0D0031E0802351462B4AD150D8E762
:101DF00006201856002821DB4200111889007418AB
:101E00008B46A1689960E179D97106216156997173
:101E1000002924DBA488F11A640524155C440919FF
:101E200009051E4C490D2143998013181C4A9B003B
:101E30001178F31899711070AAE713005946002918
:101E400014D1FF3191711749918015490A789A711F
:101E5000154A9B1B5B415A43120D0A7098E71149C2
:101E6000E2E70620105613000028C5DA0F4A104991
:101E7000D21A083A5002400D014399800D49520888
:101E80000A43DA8084E7C046240100D000ED00E078
:101E9000C1010010BC1A002000E100E000E0FFFFDB
:101EA000D322002001BDFFFFAAAA0000F61A0020DD
:101EB00000F0FFFF00F8FFFF10B5830804000320C7
:101EC0002040FF24054AC0009446844081409B0086
:101ED00063441A68A2430A431A6010BD00E400E09C
:101EE00070B501240443EFF30581EFF3108C72B653
:101EF000214A1368002BFCD0BFF35F8F1F4B0500F6
:101F00001F4AED1A6D416A43120D1E4D8900AE68DD
:101F100052B27658A6421CD00621595691421CD086
:101F200012215956914222D01E215956914220D059
:101F30002A2159560324914210D0134B19781A7054
:101F40008171BFF35F8F00220B4B1A608CF31088F6
:101F500070BDAB680D4C5C50EFE7002461000919BF
:101F600089005B18FF21997109499980E5E70124EF
:101F7000F4E70224F2E7C046240100D0BC1A002096
:101F8000AAAA000000ED00E0D3220020C101001049
:101F900001BDFFFF024B9C46614489000160704710
:101FA0004000003470B5114C114DAC420FD2FF26E9
:101FB0002368002B0CD0FFF723FA01002000FFF765
:101FC000E9FFA680BFF35F8F0834AC42F0D370BD49
:101FD000FFF716FA01002000FFF7DCFF2671BFF3C0
:101FE0005F8F0834AC42E3D3F1E7C046381B0020D2
:101FF000401B0020094A83009A1810B5146840223B
:10200000544080322240064CC000A44663441A600B
:10201000044B9C466044416010BDC04604C0014072
:1020200004D0014000400140074B8000C3181B68EA
:10203000C90092000A435A400C231340034A9446B5
:10204000604403607047C04604C0014004D00140B2
:102050008000002905D0064B9C4640236044036065
:102060007047044B9C46402360440360F8E7C04639
:1020700004E0014004F001400123D0228340120615
:1020800093629361094A83009A1811684022514073
:1020900080320A400649C0008C4663441A60054BF2
:1020A0009C460523604443607047C04604C001401D
:1020B00004D0014000400140F8B5DE464E46574688
:1020C0004546E0B58B4605000A991800160000F059
:1020D000BBFC0A9B6C001F02324B64199C46A40097
:1020E0006444636881469F4200D967602B1FDBB25E
:1020F0009846012B30D9C02380229B01E31812019E
:102100001A60294BAD0059599A4600291BD1730119
:10211000E026226853401E40802342465B01E318BC
:102120001E60012A30D9802380229B01E31812010E
:102130001A6053464A4667605A51F0BCBB46B246E5
:10214000A946A046F8BD586900F07EFC0130430066
:102150001B18033BFDD2DAE75B46012BCBD1C02332
:1021600003229B01E3181A60023AA3681A42FCD0CA
:102170007301E0262268AD0053401E4080230A4AC6
:102180005B019246E3181E605A46216851400322C3
:102190000A401A6001225B469A40A3681A42FCD0AA
:1021A000C1E7C0460080004064220020F0B54646EA
:1021B0004F46D646C0B51F00344B44009C462418F9
:1021C000A4006444636888461600FF2B02D880236D
:1021D0005B006360031FDBB29A46012B30D9C0233A
:1021E00080229B01E31812011A60294B850059597E
:1021F000994600291BD17301E026226853401E40F6
:10220000802352465B01E3181E60012A30D98023E7
:1022100080229B01E31812011A6080235B00636037
:102220004B465F51E0BCBA46B146A846F0BD58697E
:1022300000F00AFC013043001B18033BFDD2DAE733
:102240004346012BCBD1C02303229B01E3181A6024
:10225000023AA3681A42FCD07301E0262268850086
:1022600053401E4080230A4A5B019146E3181E60DA
:1022700042462168514003220A401A600123424627
:102280009340A2681342FCD0C1E7C04600800040E2
:1022900064220020014B8000C05870476422002057
:1022A000F0B54746CE4680B55B4B16005A6807002E
:1022B000884683B0FF2A02D8802252005A60032247
:1022C000564B554D1A600123AC682342FCD02022A6
:1022D00029685140C0320A4051490A602A684E4D6F
:1022E0005A40032313400B600223AC682342FCD006
:1022F00080224C4B12011A6080235B006B604A4CB9
:1023000099464A4B3A00636101214346484800968A
:1023100000F0D8F941463800714300F095FB454B79
:1023200005005A68FF2A01D84A465A608022424B6B
:1023300012011A602169002907D0606900F084FB4E
:10234000013043001B18033BFDD2E023394A3B48D0
:1023500011680B40036002231168594001330B40A0
:102360000421036093681942FCD08021344B090199
:1023700019608021334B490051602361264B5A6814
:10238000FF2A00D8596003220121244B1A60224AF7
:1023900093681942FCD0E023106803402048036092
:1023A000126803234A40022113401B4A03609368CA
:1023B0001942FCD080211B4B090119608021224B5E
:1023C0004900516065615A68FF2A00D8596080222F
:1023D0001E4B12011A60A169002907D0606900F044
:1023E00033FB013043001B18033BFDD24023164949
:1023F0000A685A40A0331340154A13608022154BD7
:1024000012011A6080235B004B60084BA36103B08C
:10241000C0BCB946B046F0BD3C8000403CB0004076
:102420003C9000403CA0004064220020006CDC0294
:10243000008002403080004030B0004030900040CA
:1024400030A00040001BB7004880004048B000406A
:102450004890004048A00040F0B54E46DE46574642
:102460004546E0B51600924A85B09346A022520038
:1024700091465A4603969B46060001920291019BA3
:102480008C4A93420DD901235B429C468A4AE1441F
:102490009446019B634401934B460F2BEFD10020E0
:1024A0008EE01F00854B07249C466744230063434E
:1024B00038001900984600F0C7FAA246651E864209
:1024C00050D06C433800210000F0BEFA864259D04B
:1024D0006B1E9846012D00D1D3E05346E41A21002B
:1024E000380000F0B1FA864258D0AB1E9846022D53
:1024F00000D1B9E05346E41A2100380000F0A4FAF4
:10250000864264D0EB1E9846032D66D05346E41AEB
:102510002100380000F098FA864200D172E02B1FAB
:102520009846042D00D174E05346E41A2100380087
:1025300000F08AFA864200D17DE0052D00D17FE0CF
:1025400053463800E11A00F07FFA06248642ADD1E6
:102550000029ABD1C8465B46D14601250298039EAF
:1025600026E0A8464146380000F06EFA002900D166
:1025700097E0651EA2466C433800210000F064FA23
:102580008642A5D12100380000F05EFA00299FD1D3
:10259000C8465B46D1460298039E09E00029A4D1B3
:1025A0005246C2465B46C846554691460298039E2F
:1025B0004246434951434A460160012032601D6052
:1025C00005B0F0BCBB46B246A946A046F0BD002906
:1025D000E6D0EB1E9846032D98D10921380003243C
:1025E000092500F031FA8642BBD0032306213800CA
:1025F0009A460334073D00F027FA8642C2D00123F1
:1026000098466AE70029CBD02B1F9846042D00D0AE
:102610008AE704240C353B099E42A2D004230C21F6
:1026200038009A4608340D3D00F00EFA8642A9D0D3
:102630000223984651E70029B2D0052D00D07FE74C
:1026400019213800192500F0FFF9864226D01421FF
:10265000380000F0F9F9052314249A4686421BD06D
:10266000023B9846153D38E7042302249846BB08F0
:102670009E4200D176E7A246013D7B089E4200D1F2
:1026800080E7B74200D0FEE60122C8465B4691468D
:1026900001250298039E8BE7042573E7A8460524CD
:1026A00060E7C8465B46A14625000298039E7FE787
:1026B00050262F0050F80C0020D1FFFFB0710B0006
:1026C000001BB700F8B5040021481E0017000D00DC
:1026D00000F0BAF90100380000F0B6F9069B3604A4
:1026E0001B031E432368002B20DB1A4B1A49E318F7
:1026F0005A1E93418022920194465B421B0B174A5B
:102700001B0363441360164A13601F000A68974353
:10271000FBD1144B2560E2182123A06013602368CD
:10272000002BFCDA0823E6601360F8BD3F23226823
:102730001340AB42D9D1A3681B051B0D8342D4D1F2
:10274000EE22E368D2021340B342CED1EDE7C04699
:10275000001BB7000040FDBF08C0004000E0004083
:1027600000F00040043000008023024A9B000B432D
:10277000D362704700800540AA23064A1B011360FC
:102780002133FF33D3600449044B19605368002B95
:10279000FCDA70470040024000B0FA0000600240DE
:1027A0007047C04610B50148FEF7ACFDC43C0010B0
:1027B00070B5074D074EB54209D20024013E761B85
:1027C000B60808CD984723000134B342F9D170BD53
:1027D000103C00104C3C0010054B064A06491A609C
:1027E000064A074B1A6010000B689843FBD17047EC
:1027F00000E00040BFCDFBFE08C00040FE7F3C0073
:1028000000F00040044BDB6C002B03D18022034B13
:10281000D2021A607047C046000011504C2011507F
:10282000044A054B1A60054A1368DB018033FBD16B
:102830007047C046FFFFFF0100F0004008C00040A5
:102840004022034B9A675A671A67DA667047C04698
:1028500000F0014010B5FEF7DFFD10BDF8B52749C7
:10286000274C284D641AA6103200302E00D9302291
:102870002800920000F0B2FCBC2C3BD830202F2363
:102880002C196407204A801BE40F9B1B052B16D9CB
:102890003700002C02D0B300771CEA50001B33191C
:1028A0009B004108EB18C900C9181A605A60083328
:1028B0009942FAD1012303421CD09843C619B300B0
:1028C000EA50731C2F2E15D09B00EA50B31C2E2EFD
:1028D00010D09B00EA50F31C2D2E0BD09B00EA5029
:1028E000331D2C2E06D09B00EA50731D2B2E01D0D9
:1028F0009B00EA50054B9D60F8BDC04600010010EA
:10290000C001001000000020C101001000ED00E037
:10291000002310B5294C82B0A367FFF72DFF0122D9
:10292000274B1A60636C012BFCD10322254B1A60E4
:10293000224A936B012BFCD1013300930121224ADF
:1029400022480433FFF7BEFE052301210093204AED
:102950002048FFF7B7FE0022022104201E4BFFF79C
:1029600025FC0022012105201C4BFFF71FFC002243
:10297000002107201A4BFFF719FC00220021082034
:10298000174BFFF713FC8023DB000093002200218C
:102990000920134BFFF790FB0022104B002106206B
:1029A000FFF704FC0420FFF775FC0E4900F04CF81B
:1029B00001000020FFF7D8FE02B010BD00800040EB
:1029C0003CB0004030B00040002F68590080024009
:1029D000008C864700C00240001BB70040597307B7
:1029E000006CDC0240420F0001480421014B1847F3
:1029F000101B002055140010124A936F9B0815D22B
:102A00009066D166002905D0FFE7FFE7FFE7516F29
:102A1000106F704704B580210906C2175140002885
:102A200000D0C84301F0D4F8002104BDF0B5146E05
:102A3000556E576F166FFFF7E3FF146655665767BD
:102A40001667F0BD000000D0114A936F9B0813D2A7
:102A500010665166002905D0FFE7FFE7FFE7516FD9
:102A6000106F704704B5002801D00020C04301F06A
:102A7000AFF8002104BDC046F0B5146E556E576F17
:102A8000166FFFF7E5FF1466556657671667F0BDCA
:102A9000000000D094464A4A926F9208624601D2E2
:102AA00028E0C046F0B5464E346E756E776F366FCF
:102AB00000F020F89446424A146655665767166738
:102AC0006246F0BD94463E4A926F9208624601D239
:102AD00054E0C046F0B53A4E346E756E776F366F7F
:102AE00000F04CF89446364A1466556657671667E8
:102AF0006246F0BD002B24DB11D000293EDA00B580
:102B0000C943404200D1013100F038F8C943404286
:102B100000D10131DB43524200D1013300BD002A14
:102B2000EBD1002801D1002905D00020C90FC90729
:102B300001D1C043410800B501F042F80022002352
:102B400000BD00B500290ADBDB43524200D101334E
:102B500000F014F8C943404200D1013100BDC9431F
:102B6000404200D10131DB43524200D1013300F039
:102B700005F8DB43524200D1013300BD002923D1C7
:102B8000002B18D1002A0CD0BC460D4F38667A664F
:102B900000210023FFE7FFE7FFE77A6F386F674602
:102BA0007047002801D00748010000B501F008F87F
:102BB0000022002300BD02000B000020002170470E
:102BC000000000D0FFFFFFFF002B00D0BFE0130C80
:102BD00028D1002AE7D080B4114F39667A66FFE722
:102BE000FFE730B4040C7B6F396F1B0423433B6653
:102BF0007A66FFE7FFE7FFE7C04684B27B6F3D6F71
:102C00001B0423433B667A66FFE7FFE7C0460023C9
:102C10002C042D0C7A6F386F00196941B0BC7047D5
:102C2000000000D0F0B594460025140E01D1120228
:102C30000835140F01D112010435940F01D192000F
:102C40000235D40F01D152000135D40B0134254F88
:102C50007C66254C3C660E0C93B2FFE7FFE7FFE76E
:102C60003C6F6643360C7703BE467343DF0B5B0451
:102C7000C01AB941130C7343DB18C91ACE08664356
:102C8000360CB64493B273431F0F1B01C01AB941EF
:102C9000130C73431F0B1B05C01AB941860D8F021D
:102CA0003E436643360C092D24DB520A7243801AD8
:102CB0007703460A6643360C16235B1BDE40DF4073
:102CC000BF1964466643821B704604350633010013
:102CD000D940A840C01900D30131A24206D2002336
:102CE000F0BD0000000000D0FFFFFFFF121B01300D
:102CF000F3D3F1E709277F1BFE406446A2B272437B
:102D0000801A00D20139220C7243130C1204821A69
:102D100099410B007046043513370100F940A84073
:102D2000801900D30131002B02D1A2420AD2F0BD9A
:102D3000013000D30131121BFAD2013BF8D1A2427B
:102D400000D2F0BD013000D30131121BF7E7F0B51E
:102D50001C0C00D080E00CB400251C0A04D11B021E
:102D6000160E3343120208351C0B04D11B01160F3B
:102D70003343120104359C0B04D19B00960F33435F
:102D800092000235DC0B02D192185B4101351C0028
:102D9000971864410134464F7C66464C3C660E0CE5
:102DA000FFE7FFE7FFE7C0463C6F6643360C77035B
:102DB000BE4697B27743C01B00D20139C01B00D278
:102DC00001399FB27743C91BC91B170C77437E0497
:102DD000FF0B801BB941CE086643360C0C2D33DB4C
:102DE000B644120B1F053A431B0B97B27743C01B27
:102DF00000D201399FB27743C91B170C77433E04B9
:102E00003F0C801BB941860D8F023E436643292744
:102E10007F1BFE400C3D7746AF40BF1930BCA2B2CD
:102E2000ABB272437343801A9941220C7243130C64
:102E30001204801A994102000B000137001BA941BE
:102E4000F9D2781E0021F0BD0C277F1BFE4077468B
:102E50007F0BAF40FF19E0E700245D1C07D0144F43
:102E60007D663966FFE7FFE7FFE7FFE73C6F95B256
:102E70009EB265436643401BB141150C1E0C654371
:102E8000664336042F0C3E432D04401BB14199424A
:102E900004D202000B0020000021F0BD01D19042BD
:102EA000F7D3801A994101349942F2D3F6E7000032
:102EB000000000D0FFFFFFFF132370B51D78012D28
:102EC00019D014DD1F48FEF7BDFA06001E48FEF7B4
:102ED000B9FA1E4C80223100200000F07FF9022D4B
:102EE0002DD01B48FEF7A6FA1A4B186070BD1A4B7E
:102EF000164CA364F5E7184B144C23606360A36081
:102F0000E36023616361A361E36123626362A3629F
:102F1000E36223636363A363E36323646364A3647F
:102F2000E36423656365A365E36523666366A3665F
:102F3000E36623676367A367E367A364D1E7064B90
:102F4000A364CEE75344000053460000301F002026
:102F50004C330000C82200205D2F001007B56046EA
:102F600001880A0A0230DF2AFAD1C9B2820804D3E2
:102F7000028840880004104300E00068014A505075
:102F8000039007BD301F002051434343C9188C46AE
:102F9000110C83B24B4310B4040C614392B280B263
:102FA000504362431C041B0C001910BC594113040C
:102FB000120CC01851416144704700004840414024
:102FC00048400E4B5B6818470C4B1B6818470C4A6F
:102FD000936F9B0802D2094BDB681847F0B5146E5B
:102FE000556E576F166FFFF7F6FF054A1466556664
:102FF00057671667F0BD014B9B68184730200020CB
:10300000000000D007B548404140484001E0C046BC
:1030100007B54200120E03D0FF2A03D1420218D88E
:10302000C00DC0054A00120E03D0FF2A03D14A0288
:103030000FD8C90DC9050122414005D4414001D531
:10304000814207BD884207BD0143491801D0C043F2
:10305000001807BD00B5FFF7DBFF01D0002000BD61
:10306000012000BDC10FC90700D54042002817D07C
:10307000F44603B40B4B1B68984706BC81409E384E
:103080004042803107D20B0607D04900490AC005EB
:103090001043084360470130F8E7490A8902F5E721
:1030A00070470000C822002041000A0E80231B0642
:1030B0007E2A0BDD9E3A0BDAC11740024008184306
:1030C0005242D040490001314843704700207047C8
:1030D000C00FC01801387047C0420DD300B5400082
:1030E0004008002100F012F8002801D4404200BD41
:1030F0008020000600BD0000034BDB69FC4618473A
:103100001CDFA9310010000030200020014B5B6A59
:103110001847000030200020132310B512481C78F7
:10312000FEF790F90100012C0AD003DD80220F4840
:1031300000F054F80E48FEF77DF90E4B186010BDF4
:103140000A4C5422200000F049F80B4B6365A3653C
:10315000E36523666366A366E36623676367A36725
:10316000E3672362E361E5E7534600003020002077
:103170004C330000C82200207D31001007B56046A6
:1031800001880A0A0230DF2AFAD1C9B2820804D3C0
:10319000028840880004104300E00068014A505053
:1031A000039007BD302000200021C21580328032FC
:1031B00001D0024A1047002070470000CD2A0000CD
:1031C00001480421014B1847201B00205514001012
:1031D000014B1B6818470000201B0020014B5B6857
:1031E00018470000201B002010B5002800D110BD9A
:1031F00000F014F9FBE7C04610B5094A0300146853
:1032000084B0002C08D0012200910648524203A944
:10321000A047012004B010BD00F04AF90020F9E7F2
:1032200094220020E931001000BEFDE710B5FFF741
:10323000FBFFC04670B5FFF7BBFA074D074EB5421E
:1032400009D20024013E761BB60808CD984723001A
:103250000134B342F9D170BD4C3C0010583C001011
:10326000030010B5080011001B68984710BDC04648
:10327000F0B5C64600B5437D07000C001600002BD4
:1032800046D0002A17DD0B780A2B24D0002398465D
:10329000012E13D001252900635C01350A2B26D0AD
:1032A000B542F8D1464509DCA419013C23780D3B11
:1032B0005A4253413B7580BCB846F0BD4346E018C6
:1032C000A419F11A013C3B68984723780D3B5A42F8
:1032D00053413B75EFE7037D002BD7D102210F4807
:1032E0003B689847012EDFD001239846D2E7631E42
:1032F0005B5C0D2BD4D0884504DA4346C91AE0182C
:103300003B689847022105483B68A8469847C7E7AD
:103310000368110020009847CDE7C04624490010FB
:10332000F0B54546DE464E465746E0B583B0914679
:103330001C0080460D00FEF76DFC0023304A121879
:103340004B41002B02DA01222E4B52422E4908003B
:103350008A4600F045FC07006B1C03D1404600F094
:10336000EFFB0500002C27D0284E294B1C68002CB1
:1033700018D04B46002B21D1264B994602E02469F8
:10338000002C0FD02368002BF9D04B461B68002B74
:1033900001D09C42F3D120002A004146B047246965
:1033A000002CEFD1002F26D1280003B0F0BCBB4683
:1033B000B246A946A046F0BD174ED6E7154B994632
:1033C0000A239B4602E02469002CEBD02368002BE3
:1033D000F9D04B461B68002B01D0A342F3D12A0041
:1033E00041462000B0476B465A462000DA71D91D8D
:1033F0000122B047E7E7504600F0DAFBD4E7C046C9
:1034000040420F00FFFFFF7F381B00207132001089
:103410008C2200209022002061320010F0B5CE46B0
:10342000474680B583B06B460600DD1D2870FEF769
:10343000F1FB0023194A12184B41002B02DA01223A
:10344000174B524217490800884600F0C9FB164B3B
:1034500081461C68002C14D0144F02E02469002C13
:103460000FD02368002BF9D03B68002B01D09C4281
:10347000F4D1200001222900FFF7FAFE2469002C74
:10348000EFD14B46002B05D1300003B0C0BCB9468C
:10349000B046F0BD404600F08BFBF5E740420F0020
:1034A000FFFFFF7F381B00208C220020902200208D
:1034B00070B5040000F044FB012301000500012267
:1034C0002000FFF72DFF084B1C68002C06D0636816
:1034D000002B05D098472469002CF8D1280070BD36
:1034E0002469002CF3D1F9E78C22002010B5064B9B
:1034F000064C82B00100009300220B232000FDF750
:103500003BFF02B010BDC0460C3D0010D022002091
:1035100003001149820151180868D90241400F483F
:1035200010B501400E48A0241018016001209840F9
:103530000C4BE40518600C4B802118600B4B4904C0
:10354000E0500B4B9C46624413680B42FCD1802335
:10355000DB00E05010BDC0461000005001780000B4
:103560001010005004340050143400504404000083
:103570000C000050F0B557464E464546DE46E0B5D5
:10358000060085B0009200221C0002930EAB187852
:1035900033680F9DDA6601325960109FDA66019038
:1035A000221E00DCBFE0013A9346002D03D001212A
:1035B0003800A84733685A4631798902002A00D179
:1035C00083E00022002091464C46009A125D0A4397
:1035D00002431A6110229046002D1AD0002404E004
:1035E000414633685A6B114229D100213800A8475F
:1035F0000443E4B20028F3D002235B4299464846D4
:10360000019B337105B0F0BCBB46B246A946A0464B
:10361000F0BD80244846596B0A42FCD019598C46AB
:10362000002957D1834571D002990130814275D06C
:10363000002183454CD00099095C1961EBE7802299
:103640009958002915D1002C15D1CB4554D0012310
:103650009C46029BE1444B45D1D001213800A8474C
:103660000021CB451BD04A46009B9A5C33681A6107
:10367000B4E701245B6D80239B009A465B468B4632
:10368000039304E0514633685A6B0A420DD100217E
:103690003800A8470443E4B20028F3D0ACE733680D
:1036A0000120019A504040028EE7039A59461B6E52
:1036B0009346002CCBD0002903D0CB0701D40907B7
:1036C0009DD401235B42994699E700229146E7E7A2
:1036D0008146E5E7596D0121884680218146180021
:1036E0008900436B0B42FCD00300196E41464846EB
:1036F000002999D06146DEE7019B002BBBD0012356
:103700005B449946029B4B45A7D178E70199002974
:1037100006D05946481C0299814289D181466EE7FC
:1037200000218846D9E70023994668E7F0B54E4660
:1037300057464546DE46E0B583B09A460CAB1B784B
:10374000019200930E9B026899460023D3660133D1
:103750005160D366534605000D9E002B60DD0123AA
:103760005B4253449B460024002E03D0012148466F
:10377000B0472A6880235B009C461300516F1029D4
:10378000FCD00021002C01D129798902A34541D028
:10379000604601431161002E27D0802240279046C9
:1037A00008E000214846B04700283BD12B689A6FBB
:1037B000002A13D142469A585A6B1742F1D0002181
:1037C00048465B6DB047C4432000009B2B7103B09B
:1037D000F0BCBB46B246A946A046F0BD1B69019AA3
:1037E000135501345445C1D1EEE780274021D35908
:1037F000536B194203D00124536D6442E4E7936F85
:10380000002BF4D01369019A135501345445DBD0D1
:103810002A68B2E70127009847407F023943B7E79B
:103820000024D1E702246442CEE7C046F8B5DE4664
:1038300057464E4645468346E0B505200C00FEF748
:1038400029FD0600600821008019FFF7FDF84300FC
:1038500098468044070005214046FFF7F5F83B1ADB
:103860009A461E4B8146700080199C4231D81C49F3
:10387000FFF7EAF8451C5B461C680023E3662268F4
:1038800004335A400233134080225201A2181360BD
:103890005346E3614B462362434601204F2B03D935
:1038A00050214046FFF7D0F8A023E050E36F3900E5
:1038B0005D400C4B2D042D0CE3181D6001233000DE
:1038C000E366FFF7C1F8F0BCBB46B246A946A04686
:1038D000F8BD0549FFF7B8F8451CCCE73F420F009B
:1038E000809698007C10000040787D010F4A70B5EA
:1038F000821A531E9A410E4BD20008321A600D4BA9
:103900000D4C1A60150023689D432B1EFAD16624C6
:103910000268FF340571D5661460633C8833FF3C50
:10392000D5639563D450FFF781FF70BD301B002035
:1039300000E0004000F0004008C00040F0B5CE4676
:10394000474680B589B01F0010AB1B78040099462C
:1039500004AB98461600129A139B40460D00FEF7E2
:1039600041F9434602934B460190009332003B00DD
:1039700029002000FFF7FEFD09B0C0BCB946B046E3
:10398000F0BDC046F0B5CE46474680B589B01F00B1
:1039900010AB1B780400994604AB98461600129AA7
:1039A000139B40460D00FEF71DF9434602934B461C
:1039B0000190009332003B0029002000FFF7B6FE83
:1039C00009B0C0BCB946B046F0BDC04601230121D4
:1039D000084A1360084A1360084A080013689843AD
:1039E000FBD1074A11608021490013680B42FCD0CB
:1039F0007047C04600E0004000F0004008C00040B2
:103A000000C00440F0B54E468146474ADE464A446F
:103A1000531E9A418023574645465B029C46E0B5BB
:103A2000424B1204624485B01A60414B0C0041497C
:103A30001A6010000B689843FBD180460620FEF701
:103A400029FC4B465A6802231A4001924A460090CC
:103A5000802004320292384AE70D4A44660213601D
:103A600093463B0032000225400007E00099914256
:103A700006D3023592197B41854201D0002BF5D047
:103A8000434680260393009B2F02AA4698467F1B3D
:103A9000760003E05346FF1A012E3FD0390040461E
:103AA0003500013EFEF7D0FF8442F3D22B0055468D
:103AB0009A4650463302984668434B4642461D613B
:103AC0001B6880265340FF227601120213404E44A9
:103AD000336080239B019C46029A019B62441360E1
:103AE00002215C464B465B6821604C4627680724F0
:103AF0006740C8343C40346003240B4013600F4BD4
:103B00004B441C60116001000098FEF79DFF05B05A
:103B1000F0BCBB46B246A946A046F0BD5546039B45
:103B200028009846C9E7C0460040FCBF00E00040BE
:103B300000F0004008C000400430000024200000D5
:103B400010B583070AD00300032102E001330B42C2
:103B500005D01A78002AF9D1181A10BD0300196887
:103B60000C4A0D4C8A188A4322420FD15968094ADF
:103B700004338A188A43224208D15968054A04331B
:103B80008A188A432242F1D000E001331A78002AD1
:103B9000FBD1E1E7FFFEFEFE80808080F8B5C046E5
:103BA00001B40248844601BC604700BFE117002011
:103BB00001B40248844601BC604700BFB51900202B
:103BC00001B40248844601BC604700BFDD190020F3
:103BD00001B40248844601BC604700BFDD190020E3
:103BE00001B40248844601BC604700BF1D19002093
:103BF00001B40248844601BC604700BF690E002042
:103C000001B40248844601BC604700BF7510002023
:103C1000D927001005280010E9290010C131001033
:103C2000B92E0010193100101129001021280010A0
:103C30004128001055280010A51F00105D28001015
:103C4000C9170010A1270010491C0010B91200105C
:083C5000B1020010B5110010D3
:103C580053797374656D20636C6F636B206F662096
:103C68002575206B487A2063616E6E6F74206265DB
:103C78002065786163746C7920616368696576652D
:103C8800640000000A2A2A2A2050414E4943202A6B
:103C98002A2A0A000A000000486172647761726586
:103CA80020616C61726D20256420616C72656164AD
:103CB8007920636C61696D65640000004861726415
:103CC800206173736572740052656C656173650079
:103CD800626F6F74325F77323571303830000000B0
:103CE800322E322E300000007069636F0000000031
:103CF80063686F7267616E004A756E2031342032D6
:103D0800303236004E6F20444D41206368616E6E3C
:103D1800656C732061726520617661696C61626CA3
:103D28006500000000000000000000000000000026
:103D38000000000000000000C1000020983E0010B4
:103D4800803E0010683E0010503E0010383E0010C3
:103D5800203E0010083E0010F03D0010D83D001035
:103D6800C03D0010A83D0010903D0010783D0010A7
:103D7800070C13180C13181F071318240C181F24EA
:103D880004070C1005070C1104070C1004070B108E
:103D9800070B0C100204070B040B1012060B101271
:103DA80004070C1004070A0E0204070A070A0C137A
:103DB800040A0C1006070A0D04070C100407091062
:103DC80007090C1004091015070C10150204091036
:103DD80003070C0F04080C0F080C0F14070C0F1323
:103DE80003080F14080F13180C13181F04070C10DE
:103DF800070B0C13070C0E130407101303070A0C08
:103E08000306090C06090C0F060C121804060A0C06
:103E1800060C0F1203060C0F070C111305070C11E3
:103E2800070C1118050C111607111318050711189E
:103E3800070C1013070B0C1004070C10070B1013BA
:103E4800040C1013070E1013070C1318070A0C1391
:103E5800070C0F1303070A0C070C1316070F131888
:103E6800070C0E13070E131802070C0E0E13151A63
:103E7800070C151A020E131A0C0D1819070C131833
:103E88000C131819070D13180C18192401070C0D19
:103E9800070C13180C13181F070C181F07131824E6
:103EA8000C18243005070C11A6290B0092D30B001F
:103EB8009A870C0056460D0069100E0080E60E0029
:103EC80053C90F00A2B910003CB81100F9C512007F
:103ED800C0E31300851215004C53160025A71700E0
:103EE800340F1900AC8C1A00D2201C0001CD1D0023
:103EF800A6921F004573210078702300F28B2500DD
:103F080080C727000B252A0098A62C004B4E2F00AF
:103F1800681E320058193500A5413800039A3B0045
:103F28004D253F008AE64200F0E04600E4174B00CA
:103F3800018F4F00174A5400304D5900969C5E007F
:103F4800D13C6400B0326A004B83700007347700BC
:103F58009B4A7E0015CD8500E0C18D00C92F9600D3
:103F6800021E9F002E94A800619AB2002C39BD0051
:103F7800A379C8006165D4009706E1000E68EE00D9
:103F88003695FC002A9A0B01C1831B01925F2C0114
:103F9800053C3E015C285101C334650159727A0120
:103FA80046F39001C3CAA8012E0DC2011DD0DC0141
:103FB8006C2AF901553417028307370225BF5802C6
:103FC8000B787C02B950A2028669CA02B3E4F402F3
:103FD8008DE62103869551035D1A84033AA0B9033F
:103FE800D954F203AB682E04060F6E044B7EB1045D
:103FF80016F0F80473A144050DD3940567C9E905C3
:104008001ACD43060C2BA306BA340807744073076D
:10401800B2A9E40757D15C080D1EDC0896FC6209BA
:104028002DE0F109E642890A1AA6290BCF92D30B93
:10403800359A870C1956460D7469100EE980E60EFC
:104048006453C90FAEA2B9101A3CB8112CF9C512A5
:104058005AC0E313CD851215344C53169F25A71764
:104068006A340F1933AC8C1AE8D2201CD201CD1D4A
:10407800C8A6921F5D4573213478702358F28B25AA
:10408800B480C7279B0B252A6998A62C3F4B4E2F37
:10409800D4681E3267581935D0A54138A5039A3B14
:1040A800904D253FBB8AE6420000000088010000D1
:1040B800110300009904000022060000AA0700006E
:1040C80032090000B90A0000400C0000C70D0000CA
:1040D8004D0F0000D210000057120000DB13000043
:1040E8005E150000E116000062180000E3190000E8
:1040F800631B0000E11C00005F1E0000DB1F0000C6
:1041080056210000D022000049240000C0250000EC
:1041180035270000A92800001C2A00008D2B00006C
:10412800FC2C00006A2E0000D52F00003F31000053
:10413800A73200000D34000071350000D3360000AE
:104148003338000091390000EC3A0000453C00008B
:104158009C3D0000F13E00004340000092410000F9
:10416800DF4200002A44000072450000B746000004
:10417800F947000039490000764A0000B04B0000BA
:10418800E74C00001B4E00004C4F00007A50000026
:10419800A5510000CD520000F15300001355000056
:1041A800315600004C570000635800007759000052
:1041B800875A0000945B00009E5C0000A45D00002C
:1041C800A65E0000A55F0000A060000097610000E7
:1041D8008B6200007A630000666400004E65000090
:1041E8003266000012670000EF670000C768000031
:1041F8009B6900006B6A0000376B0000FF6B0000D2
:10420800C26C0000826D00003D6E0000F46E00007C
:10421800A76F000055700000FF700000A571000036
:1042280046720000E37200007C7300001074000006
:104238009F7400002A750000B175000033760000F5
:10424800B0760000297700009E7700000D78000006
:1042580078780000DF780000417900009E7900003E
:10426800F67900004A7A0000997A0000E37A0000A3
:10427800287B0000697B0000A57B0000DC7B000038
:104288000F7C00003D7C0000657C00008A7C0000FB
:10429800A97C0000C37C0000D97C0000EA7C0000F7
:1042A800F67C0000FD7C0000007D0000FD7C000025
:1042B800F67C0000EA7C0000D97C0000C37C00008A
:1042C800A97C00008A7C0000657C00003D7C000021
:1042D8000F7C0000DC7B0000A57B0000697B0000F0
:1042E800287B0000E37A0000997A00004A7A0000EF
:1042F800F67900009E79000041790000DF7800001F
:10430800787800000D7800009E770000297700007B
:10431800B076000033760000B17500002A75000001
:104328009F740000107400007C730000E3720000AA
:1043380046720000A5710000FF7000005570000073
:10434800A76F0000F46E00003D6E0000826D000053
:10435800C26C0000FF6B0000376B00006B6A000046
:104368009B690000C7680000EF6700001267000043
:10437800326600004E650000666400007A63000043
:104388008B62000097610000A0600000A55F00003C
:10439800A65E0000A45D00009E5C0000945B000027
:1043A800875A000077590000635800004C570000F6
:1043B8003156000013550000F1530000CD520000A3
:1043C800A55100007A5000004C4F00001B4E000021
:1043D800E74C0000B04B0000764A00003949000065
:1043E800F9470000B7460000724500002A44000063
:1043F800DF4200009241000043400000F13E00000F
:104408009C3D0000453C0000EC3A0000913900005A
:1044180033380000D3360000713500000D34000039
:10442800A73200003F310000D52F00006A2E00009F
:10443800FC2C00008D2B00001C2A0000A92800007D
:1044480035270000C025000049240000D0220000C4
:1044580056210000DB1F00005F1E0000E11C000069
:10446800631B0000E319000062180000E116000059
:104478005E150000DB13000057120000D210000088
:104488004D0F0000C70D0000400C0000B90A0000E5
:1044980032090000AA070000220600009904000063
:1044A80011030000880100000000000078FEFFFFF3
:1044B800EFFCFFFF67FBFFFFDEF9FFFF56F8FFFF8A
:1044C800CEF6FFFF47F5FFFFC0F3FFFF39F2FFFF0E
:1044D800B3F0FFFF2EEFFFFFA9EDFFFF25ECFFFF75
:1044E800A2EAFFFF1FE9FFFF9EE7FFFF1DE6FFFFB0
:1044F8009DE4FFFF1FE3FFFFA1E1FFFF25E0FFFFB2
:10450800AADEFFFF30DDFFFFB7DBFFFF40DAFFFF6A
:10451800CBD8FFFF57D7FFFFE4D5FFFF73D4FFFFCA
:1045280004D3FFFF96D1FFFF2BD0FFFFC1CEFFFFC3
:1045380059CDFFFFF3CBFFFF8FCAFFFF2DC9FFFF48
:10454800CDC7FFFF6FC6FFFF14C5FFFFBBC3FFFF4B
:1045580064C2FFFF0FC1FFFFBDBFFFFF6EBEFFFFBD
:1045680021BDFFFFD6BBFFFF8EBAFFFF49B9FFFF92
:1045780007B8FFFFC7B6FFFF8AB5FFFF50B4FFFFBC
:1045880019B3FFFFE5B1FFFFB4B0FFFF86AFFFFF30
:104598005BAEFFFF33ADFFFF0FACFFFFEDAAFFFFE0
:1045A800CFA9FFFFB4A8FFFF9DA7FFFF89A6FFFFC4
:1045B80079A5FFFF6CA4FFFF62A3FFFF5CA2FFFFCA
:1045C8005AA1FFFF5BA0FFFF609FFFFF699EFFFFEF
:1045D800759DFFFF869CFFFF9A9BFFFFB29AFFFF26
:1045E800CE99FFFFEE98FFFF1198FFFF3997FFFF65
:1045F8006596FFFF9595FFFFC994FFFF0194FFFFA4
:104608003E93FFFF7E92FFFFC391FFFF0C91FFFFD8
:104618005990FFFFAB8FFFFF018FFFFF5B8EFFFFFE
:10462800BA8DFFFF1D8DFFFF848CFFFFF08BFFFF0E
:10463800618BFFFFD68AFFFF4F8AFFFFCD89FFFFFF
:104648005089FFFFD788FFFF6288FFFFF387FFFFCE
:104658008887FFFF2187FFFFBF86FFFF6286FFFF76
:104668000A86FFFFB685FFFF6785FFFF1D85FFFFF1
:10467800D884FFFF9784FFFF5B84FFFF2484FFFF3C
:10468800F183FFFFC383FFFF9B83FFFF7683FFFF59
:104698005783FFFF3D83FFFF2783FFFF1683FFFF3D
:1046A8000A83FFFF0383FFFF0083FFFF0383FFFFEE
:1046B8000A83FFFF1683FFFF2783FFFF3D83FFFF6A
:1046C8005783FFFF7683FFFF9B83FFFFC383FFFFB3
:1046D800F183FFFF2484FFFF5B84FFFF9784FFFFC4
:1046E800D884FFFF1D85FFFF6785FFFFB685FFFFA5
:1046F8000A86FFFF6286FFFFBF86FFFF2187FFFF55
:104708008887FFFFF387FFFF6288FFFFD788FFFFD7
:104718005089FFFFCD89FFFF4F8AFFFFD68AFFFF31
:10472800618BFFFFF08BFFFF848CFFFF1D8DFFFF68
:10473800BA8DFFFF5B8EFFFF018FFFFFAB8FFFFF7F
:104748005990FFFF0C91FFFFC391FFFF7E92FFFF7F
:104758003E93FFFF0194FFFFC994FFFF9595FFFF6C
:104768006596FFFF3997FFFF1198FFFFEE98FFFF4F
:10477800CE99FFFFB29AFFFF9A9BFFFF869CFFFF2F
:10478800759DFFFF699EFFFF609FFFFF5BA0FFFF16
:104798005AA1FFFF5CA2FFFF62A3FFFF6CA4FFFF0B
:1047A80079A5FFFF89A6FFFF9DA7FFFFB4A8FFFF1C
:1047B800CFA9FFFFEDAAFFFF0FACFFFF33ADFFFF4F
:1047C8005BAEFFFF86AFFFFFB4B0FFFFE5B1FFFFB1
:1047D80019B3FFFF50B4FFFF8AB5FFFFC7B6FFFF4D
:1047E80007B8FFFF49B9FFFF8EBAFFFFD6BBFFFF2F
:1047F80021BDFFFF6EBEFFFFBDBFFFFF0FC1FFFF63
:1048080064C2FFFFBBC3FFFF14C5FFFF6FC6FFFFF6
:10481800CDC7FFFF2DC9FFFF8FCAFFFFF3CBFFFFF7
:1048280059CDFFFFC1CEFFFF2BD0FFFF96D1FFFF71
:1048380004D3FFFF73D4FFFFE4D5FFFF57D7FFFF73
:10484800CBD8FFFF40DAFFFFB7DBFFFF30DDFFFF0C
:10485800AADEFFFF25E0FFFFA1E1FFFF1FE3FFFF47
:104868009DE4FFFF1DE6FFFF9EE7FFFF1FE9FFFF37
:10487800A2EAFFFF25ECFFFFA9EDFFFF2EEFFFFFE8
:10488800B3F0FFFF39F2FFFFC0F3FFFF47F5FFFF6B
:10489800CEF6FFFF56F8FFFFDEF9FFFF67FBFFFFCD
:1048A800EFFCFFFF78FEFFFF00000000A0AAAA0AA5
:1048B8004055551500000020A0AAAA2A4055553594
:1048C8000A0B0C0D0E0F000006005250D3F0754273
:1048D800D03C001006005250E182887FD83C00107E
:1048E80006005250ABB36053E83C0010060052502B
:1048F800BBFF3CB6F03C001006005250861C030279
:10490800F83C0010060052505422A29D003D0010B1
:1049180005005250DE65F468C46300100D0A0000FB
:10492800D0480010DC480010E8480010F448001097
:0C493800004900100C4900101849001044
:10494400F0B5F823DE4657464E4645468822834650
:10495400E0B5C5580433C6580433C75852000C3365
:10496400C3588458B432815889B06D1AAD1168188F
:1049740059468850103A89581BB2761AB6117618DF
:1049840059468E500432895824B27F1ABF117F18B9
:1049940059468F500432895800905B1A9B115B185A
:1049A40059468B50043289589620641AA41164180D
:1049B40059468C50E6215A46490052588001824299
:1049C40000D22CE3009A944680226444520194421B
:1049D40000DBD4E2E243D217144056215800C01839
:1049E400FF31000301F04CFCEC4BF0219C46664483
:1049F40073009B195B00C218130009028A4200DD90
:104A0400B7E2E7498B4200DAB1E2CE2158464900C9
:104A140041588946E421490040584E4698421FD0E7
:104A24005846435099129B058C46980D3C31002AF8
:104A340001DA00F017FE66463D36CB43DB17D94A50
:104A44001940B600890051589359D74A5B1A584304
:104A540080124018010C0023000401F041FC060000
:104A640080235B019F4200DBC7E2FB43DB171F404F
:104A7400D6207B00DB199B00DF1940003C239925DD
:104A84005A468246FF33AD00D15C584653595246CC
:104A940082583F1390460191002900D071E2C34A25
:104AA40001334351934201D100F0E9FD84235A4676
:104AB4005B00D35C002B06D085235B00D35C002B0A
:104AC40001D100F064FD0A235A46FF33D35C002B66
:104AD40000D0AEE29B23012259469B00CA540A230C
:104AE4005A46FF33D35C002B01D000F000FD922323
:104AF4005A469B00D35C002B00D0A7E2D4235A462D
:104B040058465B00D1580833D258103BC058B042C5
:104B140001D100F02BFCCE205D4640002E50EE501B
:104B24008F4201D100F0A3FDD22359465B00CF5040
:104B34000433CF50904504D0D8235A4641465B00F5
:104B4400D150C2235946984A5B00CA503B00954A4B
:104B54003C339B00D358BF009A46C42350465B00A5
:104B6400C850934BF958434698000B563C337F2B5F
:104B740000DC4CE27F239B00D3585F469946C62352
:104B84004D465B00FD5001230918CB563C337F2B67
:104B940000DC38E27F239B00D35858469846C8234C
:104BA40045465B00C5500223CB563C337F2B00DCCB
:104BB40031E27F239B00D758CA2358465B00C75075
:104BC4000323CB563C337F2B00DC18E27F239B006E
:104BD400D55830000023744A002101F049FBC22358
:104BE4005A460904000C08435B00D05000213200EF
:104BF4000023504601F03CFBC4235A460904000C30
:104C040008435B00D050002132000023484601F0E5
:104C14002FFBC6235A460904000C08435B00D050FE
:104C2400002132000023404601F022FBC8235A46EB
:104C34000904000C08435B00D0500021320000231B
:104C4400380001F015FBCA235A460904000C084336
:104C54005B00D050002132000023280001F008FB43
:104C6400CC235A460904000C08435B00D050019B36
:104C7400022B00D188E38023009A1B019A4200DAB8
:104C84008DE34C4B06935B238021444A0901A2180F
:104C94009246091B002A00DA8A46504646490C1AF5
:104CA40046490194091A464848430490002A00DA08
:104CB400E3E180229200944200DA73E39F007F4292
:104CC4005A00FF1A3F4B00249846C2235B005B4402
:104CD400019383129A46002300938023DB059946AF
:104CE40043465E46A0461C006D360292FF36B56907
:104CF40000232A007810F91701F0BAFA336809047E
:104D0400000CED1808432D18EB0B1A0035604D45C7
:104D140007D3C0212C4A09069A188D4201D22B4A86
:104D2400D21A2B4B290C9C4661444B015B1A9B0005
:104D34005B185146DB119B1A4B439B129B189A003C
:104D4400D318009ADB1194469C446346009323686D
:104D5400ED18EB0B1A004D4507D3C0211A4A09067A
:104D64009A188D4201D2194AD21A194B51469C46BF
:104D74002D0C65446B015B1B9B005B19DB119B1ABB
:104D84004B439B129B189A00D318DB119844029B47
:104D940004369C46019B674404341BE000F8FFFF83
:104DA4000010FFFFB03E0010C334650180BB00005B
:104DB400443D0010EC3F0100FF070000FF05000028
:104DC400AB020000B04800100000FEFFFFFF00002F
:104DD4000080FFFF9E428AD1009B44469D10B54B44
:104DE4009D4200DA1D0080231B019D4200DBB24D71
:104DF400B04BA4109C4200DA1C0080231B019C428F
:104E040000DBAD4CE8235B0098465B464246F02746
:104E14009E587F00BE420FD228003900704301F033
:104E24002FFA050020003900704301F029FA5B468F
:104E34004246040001369E505A46F223D5520233AC
:104E4400D4527833D3585B0000D531E2D02380228A
:104E54001B0652005A61EC2206995B468C46594661
:104E640052009B5863448B501A0C002B00DA1BE24F
:104E74005B0CB62259469148520084468958904AA0
:104E840049085A436244914200D207E2D022802169
:104E9400120689005161D222594680245200885852
:104EA40024010101411849000A1C09B2A14200DB96
:104EB400814A804912B28A4200DA0A007E4CA21A60
:104EC4005101891A89008A187E490A607E4A9446EB
:104ED40063449B10E41A63011B1B9B001B199A2457
:104EE4004B605B46A4001A59002A00DAE6E101236C
:104EF4001340764A76499446764D013B2A680B4026
:104F04006344534074481B041B0C03602B68734AAE
:104F1400734D53401B0C1B0403605B4602201B595A
:104F24000340584243415B4228680B40634443407A
:104F34001B046C481B0C03602B6853401B0C1B04A4
:104F440003605B4604201B590340584243416648B2
:104F54005B420B40016863444B401B0463491B0CD8
:104F64000B6003685A40120C12040A605AE00B00EA
:104F74004BE50B005E498B4200DB46E5F7E75D4CF1
:104F84002BE5002B00D110E3EA235B00C35C002B6C
:104F940000D10EE39A239B00C358002B00DA7CE374
:104FA40090218900425853009B189B005B441800D1
:104FB400DD30FF30C0C04046E533FF3318600723BF
:104FC4000132D017400F121813405A461B1A53507F
:104FD4008F225B4692009B58072B02DC5946013313
:104FE4008B509A23012259469B005242CA50EA230D
:104FF400002259465B00CA54DBE23E4F38E5D943F0
:10500400C9170B40E3E5D843C0170340C3E5DF43AA
:10501400FF173B40AFE5D843C0170340CAE55B46E2
:1050240001325A5009B0F0BCBB46B246A946A0466C
:10503400F0BD9B239B00D35C002B00D04FE5922353
:105044005A469B00D35C002B00D157E597239B0065
:10505400D358F31ADA179B185340274A934206DCB5
:1050640098235A469B00D358BB4200D17EE2922338
:10507400002259469B00CA5440E59E0076425A00DD
:10508400F61A0C4B039253445A1E9341019A5B4205
:105094001A4000230093194B5D469846049B002454
:1050A4009B12079343466D35A046154FFF35059275
:1050B40002937EE000F8FFFFFF070000CCCCCC4C4D
:1050C4009A190000981A002000E0FFFFE0FF00009A
:1050D4002000FFFF70000540701005400000E0FF55
:1050E4008400054084100540980005409810054050
:1050F4000010FFFFFF0F00003A0F0000B040001047
:10510400B0480010C0231B069C46E94BC3186245F7
:1051140001D2E84B1B1A05985B1A43435B009B12B0
:105124005B189900CB1800995B008C461B129C44B9
:10513400634600933B685146D21880231B01CB1A67
:10514400591E8B4101995B420B40D10D88000131FE
:10515400029CC905490D20586158091A8C466446B9
:105164005102890D614389120918D00B84468020AD
:10517400C005824200D28FE0C02000068146CC48A0
:1051840060444A4502D26246CA48801A401A4343E0
:105194005B009B125B189A00D3185B001B129844A7
:1051A400039B04379C46C44B664404359F4200D19C
:1051B40012E6AB6970101A009946F117002301F04A
:1051C40057F880232A680904000C08434A4412183B
:1051D4002A601B019A4514D1D30D99000133029C16
:1051E400DB055B0D6058E35851021B1A890D5943C6
:1051F400802389120918DB05D00B9A4282D203005E
:1052040089E7802301999B009942E5DB802004997A
:10521400D30B8912C005824200D221E2C0200006CD
:105224008446A3481818624500D25DE1A34C130CD0
:10523400A4469C44634664465B011B1B9B00634479
:10524400DB111B1A5943891209188B005B1800994A
:10525400DB118C469C446346802100933B68C9055E
:10526400D318D80B02008B4208D3914CC021A4461A
:10527400090662448B4201D28E4A121A8F491B0CD2
:1052840059184B015B1A9B005B18DB1107999B1A99
:105294004B439B129B187EE7604677E7D022802120
:1052A400120689009161F6E5824B9B1A5B08E0E5E2
:1052B400D02380221B0652009A61CCE592235A46E1
:1052C4009B00D35C002B00D07FE1042380003528B1
:1052D40004DC0C21063000F0D3FF03007849086891
:1052E4005A425A415242424012047648120C026019
:1052F4005A1E544262410968524212044A40120C36
:10530400120402609A1E544262416F495242086874
:10531400424012046D48120C0260DA1E544262418B
:105324000968524212044A40120C1204043B0260FF
:105334005842434166495B420A68584653401B043D
:10534400644A1B0C1360D6235B00C35809685800D9
:1053540018188000181883011B1A9BB25B431B1298
:105364001B044B401B0C1B0413605BE64E468F4230
:1053740001D0FFF7D9FB904500D178E4D2235A46F7
:105384005B00D758FFF7D8FB8023009A1B019A4291
:1053940000DA15E1504B069389235B0074E4002383
:1053A400069371E49F007F425A00FF1A4B4B5E46FE
:1053B4009946C2235B005B44029300230093484B4D
:1053C400002498468023DB059A4643466D36A04662
:1053D40003921C00FF364FE0354A94466344EA0DBD
:1053E40091000132D205520D6158A0586A02401A48
:1053F400920D42439212521801999B1A4B435B003F
:105404009B129B189A00D318009A5B0094461B12B7
:105414009C44634600934B4619686918CB0D9A0067
:105424000133DB055B0DA058E3584A021B1A920DA9
:105434005A4392121218CB0B514507D3C0200006D1
:10544400814200D206E11A498C46634401999B1AB1
:105454004B435B009B129B189A00D3185B001B12F2
:105464009844039B04369C46042367449C46029B51
:10547400E1449E4200D1AFE4B56900232A007810CC
:10548400F91700F0F5FE33680904000CED18084321
:105494002D183560EB0B5545A1D3C0221206954259
:1054A4009AD2064A94460F4A6344D31A97E7C046F1
:1054B4000000FEFFFFFF0000C84800100080FFFF4F
:1054C40070000540701005408400054084100540BC
:1054D400980005409810054048C30300B0480010E8
:1054E400B0400010FF7F00007348C01A9EE60C23F2
:1054F400FF33D35C002B01D0FFF7F9FA8F239B0015
:10550400D3589A46002B01DCFFF7F1FA9125AD0040
:10551400535951461800029300F0CAFE5A464B00F4
:105524005B189B00D218DD32FF32106893225D466F
:10553400D9339200FF33A8505B449868DA68942307
:105544009B00E8500433EA5001220433E950043349
:10555400EE500433EF50183BEA54029B5146581C5A
:10556400912500F0A5FE5B46AD00595193235A46A0
:105574009B00D6580433D7580433D358434503D03B
:10558400D622594652008B509846FFF7B7FA404648
:105594000621013000F08CFED6235A465B00D15020
:1055A400A8338846D150FFF78EFA0122D533FF3352
:1055B400C2549923002259469B00CA50FFF776FA39
:1055C4003E4B0693B623FFF75FFB3D4C3D4A2368F1
:1055D4003D4D53401B041B0C96202B605B46012160
:1055E40080001B58394E0B408021B4468903013B8F
:1055F40024680B40634463401B0C1B042B60344D34
:10560400344C2B68022653401B041B0C23605B465E
:105614001B582D6833405E4273415B420B40634428
:105624006B401B0C1B0423602B4C236853401B044E
:105634002A4A1B0C13605B461B5804200340584243
:1056440043415B420B40216863444B401B0C1B04E9
:105654001360E7E422498C4622496344CB1AF5E6F9
:105664001800E3E50E0061463B31FFF7E6F9043329
:10567400EF58904501D0FFF75FFAFFF762FAEA238B
:105684005B00C35C002B01D1FFF710FA90239B0051
:10569400C2582833C250FFF709FA404606210130A8
:1056A40000F006FE5B465246995095235A469B00ED
:1056B4008846D1509BE4C046FFFF0000D87F02001B
:1056C40070000540E0FF0000701005400000E0FF9E
:1056D400840005408410054098000540981005405A
:1056E4000080FFFFFF7F0000E021F8B5DE4657464B
:1056F4004E4645466C4AC9011368E0B50B406B49F8
:1057040004000B60F02310681B034340F82040039F
:1057140003400B60664B01201968664BB4254B406F
:1057240065496D000B4065496A270B60F823DB016E
:10573400136100F0C5FD6055012000F0C1FDFF3785
:10574400E055A020B526C0058446635D5C49DA02B5
:105754008A460A405B4976001143A25D5A481432D6
:1057640012019B016344A21818605A6008229A60CF
:10577400D96001239146625D01219340534A0B2075
:10578400136000F06DFD0B20514900F0A1FD494666
:10579400A423504A0420D1504F4B19604F4B190099
:1057A400984600F095FDFF21042000F0A1FD0121A1
:1057B400042000F055FD5246E35DD9021140484AE9
:1057C4009B010A43A021C9058C460021634419604A
:1057D40044495960022199601A61B022424B520037
:1057E400A3500432A3504A46404B1A6000223E2381
:1057F400924601329146FF33E25C032A14D0E25C04
:10580400022AF9D10021042000F02AFDA423082152
:10581400304A0420D150414600F03AFDF0BCBB466A
:10582400B246A946A046F8BD52464946E254625DD6
:105834002F4891400A00A021C9050A50A020C005A4
:105844008446A25D615D1432120189016144A2188B
:10585400CA626A21F820A25DFF31615C583292006D
:1058640089016144A218CA630F4A400311680140C8
:105874008C4667460D490F601768BC46E027FF0158
:10588400BB466746584607400F6012689446F022AC
:10589400604612034240F820400302400A60082197
:1058A400124A1160A8E7C04600C0044000D004407A
:1058B40008C00440090000010F00000F08D0044094
:1058C400FF7FE0FF250012000CC0044004240050B8
:1058D400D903001000000540A8200540D50200109F
:1058E4001500080008C00340003800B800E0044078
:1058F4000C040000F0B5DE4657464E4645460822E5
:105904000400E0B5E54BE64987B01A60F8320B684D
:105914001342FCD08B68134206D18021E04B49002E
:10592400DA689A680A42FBD0E022DD4BD2011B6898
:105934001340DC4A13600322DB4B1E680393731C81
:105944001A400292DA0700D4CBE2D0228021120658
:10595400490451619B0700D4BDE2D02380221B0679
:1059640092045A61B5214900635C012218000123A5
:1059740000901B1AB420170063544000235C9F401E
:10598400B846A0234546C94FDB05DD51A025ED05EA
:10599400AC46635C205C14331B0180016044E31853
:1059A400C362635C6A21FF31615C58339B008901E7
:1059B4006144E318CB630821BD4BBE4D1960F30F5E
:1059C400F1180A40D21A009BAC461901611808006C
:1059D40080234F30FF30904602889B00D3189BB23F
:1059E4009B0ADB00D3189205920D624415006A42AB
:1059F4006A4192009B18B04A9BB253439146DA0C19
:105A04000280A02080234000170004920A5A9B00C1
:105A1400D3189BB29B0ADB00D3189205920D624403
:105A240015006A426A4192009B184A469BB253434E
:105A3400DA0C0A52080080239E4D4930AA46FF30F2
:105A4400944602889B00D3189BB29B0ADB00D318B0
:105A54009205920D524415006A426A4192009B18C5
:105A64004A469BB25343DA0C8023028006380192E3
:105A740002889B00D3189BB29B0ADB00D3189205C3
:105A8400920D524415006A426A414D4692009B1899
:105A94009BB26B43DB0C0380A520400082468A4402
:105AA40050468022834D0088AB469200821892B201
:105AB400920AD20082188005800D5844050068427D
:105AC40068414D468000101880B268435546C00CAA
